:02000002D0002C
:1040000000400D00E0E80D00000006000C00050176
:084010000401BA0400000000E5
:1040180090D10D0009480A49884208B505D0094AD7
:10402800824202D0121A06F078F90748074A00219E
:10403800121A06F07DF9014808BD00BFB8D4032064
:10404800A0E50D00D0D70320D0D70320F0E7032048
:1040580070B503F06DFC074C074BE41AA408002563
:104068001E46A54204D056F8253098470135F8E792
:1040780070BD00BFA0E50D0014E50D0000F058B8B4
:1040880008B500F041FBBDE8084003F01FBC02F092
:1040980033BC02F031BC02F037BC02F035BC000082
:1040A80008B5034A00210C2002F038FBFEE700BFE8
:1040B800B5630D000078B0FA80F04009704701231D
:1040C8000370704770B50825002486B2304605F0A5
:1040D80038F8013D0444F9D1E00870BD08B5212045
:1040E800FFF7F0FF07EE900A9FED047A044BF8EE15
:1040F800E76AC6EE877AC3ED007A08BD00007A4405
:10410800F8D7032002F0A2B87047D0F8EC3319446E
:10411800B1F57A7F9DBF1B18C0F8EC13181D00205D
:10412800704708B503F04AF9003018BF012008BDF0
:1041380038B5334C2368DB070AD42046FFF7BAFFAB
:1041480030B10121084602F051F92046FFF7B7FFC8
:10415800012002F0DBFA2B4A2B492C482C4C04F0A6
:10416800CBFA40F2B27503F04FFBA8420BDC0020FB
:1041780002F0AAFB02F022F9206002F085FB64201D
:1041880003F056FBEFE7BAEE000A03F03DFA03F03E
:104198005DFF4FF4E13103F04DFF41F2883003F049
:1041A80047FB00F0E9FD1B4B0121188804F08CFF48
:1041B8000021212004F088FF03F048FF164903F08E
:1041C8003BF93C220221154801F0ECFA03F03EFFCE
:1041D800134903F031F9114801F028FC0F4801F0A8
:1041E800AFFB0221042004F06FFF0221032004F03A
:1041F8006BFF02210846BDE8384004F065BF00BFE8
:10420800F0D7032019510D00B0D10D0010E40320A0
:1042180008E60320B8D40320BAD10D0004D803203F
:10422800CBD10D0013460A46012103F03EB91346CF
:104238000A46012103F039B970B506460C466CB13F
:10424800E1683046FFF7F8FFA56804F1100002F0B6
:10425800FBFF2046FFF71FFF2C46F0E770BD10B5A7
:1042680004468168FFF7E8FF204610BDF8B5074609
:104278000C4694B1E1683846FFF7F8FF04F11005E1
:1042880004F12000A66802F0DFFF284602F0DCFFF8
:104298002046FFF700FF3446EBE7F8BD10B50446AB
:1042A8008168FFF7E3FF204610BD2DE9F0418D68D6
:1042B80004460F4690460E1D01205DB105F1100120
:1042C8004046FFF72EFF18B1AB682E461D46F4E7AF
:1042D800EB68FAE748B1FB689E4201D125600DE022
:1042E800304605F020F8054600E03546414605F120
:1042F8001000FFF716FF18B100232360666001E085
:10430800256060602046BDE8F08100002DE9F34794
:10431800074630200C461D46FFF7B9FE10F110067F
:10432800814608D02968304602F0F7FF434906F174
:10433800100002F0D0FF07F1040AA2450AD17B69F8
:10434800002B6FD0386931461030FFF7EAFE00289D
:1043580058D167E004F1100841463046FFF7E1FE06
:104368000546A0B1FB68A3420FD0204604F0DBFF4E
:10437800314605461030FFF7D4FE002852D0EB68CE
:10438800002B14BF2546002427E0254625E03146AA
:104398004046FFF7C6FE002838D03B69A34219D033
:1043A800204604F0ADFF804600F110013046FFF7CB
:1043B800B8FE30B1E368002B14BF44464FF0000844
:1043C80009E0324639466846FFF76FFFDDF800809E
:1043D800019C00E0A84625464446BDB13CB9AA4523
:1043E80005D005F110013046FFF79BFE00E00120E3
:1043F80053462A46494604F098FF7B6901337B619E
:10440800484617E03D69002DE9D12C4606F1100019
:1044180002F01AFF304602F017FF4846FFF73BFE4E
:10442800204607E0324639466846FFF73EFF9DE8DA
:104438003000D2E702B0BDE8F08700BF19DB0D00FD
:104448002DE9F04FADF2A44D02AF05469A49381D4B
:1044580002F041FF994BD8681C1DA0420DD0066A96
:10446800D6F88030AB4205D100F11001381D02F0BA
:1044780045FF02E004F044FFEFE7914801F0D6FA67
:104488008F4801F05DFA01218D4801F091FC01216E
:104498008B4801F092FC00221146894801F085FC06
:1044A80003F0A1F9874B8849024607F1A80003F0F9
:1044B80047F9D7F8A84003F09DF9844A844B854909
:1044C800002818BF1346224607F1240002F02CFAF0
:1044D80007F1A80002F0B8FE07F12401784802F0BD
:1044E80098FF7549381D02F057FF002840F0C48036
:1044F800794C7169724802F08CFF0434656806F1E2
:104508000408A14665B1414605F11000FFF709FE10
:1045180018B9AB682C461D46F4E7EB682546F9E761
:104528004C4507F1140500F0BB8004F1100140462A
:10453800FFF7F7FD002840F0B38004F1200128467A
:1045480002F0EBFE07F1A80002F0AEF907F1A801AE
:10455800404602F014FF044607F1A80002F074FE7A
:10456800002C75D1C7F894442C685C4BC7F8A83068
:10457800204606F06BFC083020F00700E946ADEB5A
:10458800000D0DF108082146404605F027FF0A22D4
:10459800414607F1A80001F0F3FD044603F056FD7B
:1045A800296802F049FF03F051FD414602F044FF3B
:1045B800236843B94A49424802F02BFF2846CD46B2
:1045C80002F042FE64E04749204601F08DFD01F00B
:1045D800E7FD51EC100B05F0F1FC05F0B9F90B46BD
:1045E8000246414907F1240002F09EF907F124012F
:1045F800334802F00EFF33680E2B27D13B49204683
:1046080001F072FD01F0CCFD394920465BEC10AB9E
:1046180001F06AFD01F0C4FD3649204601F064FD51
:1046280001F0CEFD59460446504605F0C7FC05F09A
:104638008FF9009402460B4607F124002E4902F038
:1046480073F907F124011E4802F0E3FECD460FE09E
:104658002A4B186805F07CF902460B4607F124003E
:10466800214902F061F907F12401154802F0D1FE51
:10467800284602F0E9FD03E02149114802F0C9FE8D
:1046880000220F48114601F090FB0D4801F058F93F
:10469800381D02F0D9FD07F29C47BD46BDE8F08FF2
:1046A800C7F8A8802146009507F1A803154A0A48CB
:1046B800FFF72CFE044640E719DB0D0028D803203D
:1046C80004D80320D9D10D00A8E2032031DC0D0065
:1046D800D6D10D00EBD10D00D4D70320ACD10D00FD
:1046E800F0D10D00E2E10D0002D20D000FD20D0055
:1046F80012D20D00FDE10D0016D20D00F8D70320EF
:104708002BD20D0020D40D00F0B59F4C9F4D208872
:1047180087B0012104F0E9FCFA2003F089F80021B0
:10472800208804F0E2FC042004F0F8FC08B9042313
:104738002B60032004F0F2FC08B903232B6002204D
:1047480004F0ECFC08B902232B6001F037FE904A14
:10475800904C1368C01A904B1B68984216468F4BB2
:1047680004D829681A68914200F0CD802A681A6036
:1047780003F06CFC8A4A012102F097FE03F066FC04
:10478800884A8949FFF753FD03F060FC074602F0A9
:1047980083F8864B864A00900021384602F085FE51
:1047A80003F054FC834B002207461146586802F078
:1047B80033F8814A03460021384602F076FE03F0BA
:1047C80045FC7E4B002211460746586802F024F843
:1047D8007B4A03460021384602F067FE03F036FCA8
:1047E8002B68784A012102F060FE03F02FFC76491D
:1047F80002F022FE03F02AFC2368744A5B68002159
:1048080002F053FE03F022FC2368714A5B69002121
:1048180002F04BFE03F01AFC23686E495A6AFFF750
:1048280001FD03F013FC2368D3E90A230021CDE935
:104838000023694A02F039FE03F008FC2368D3E933
:104848000C230021CDE90023644A02F02EFE03F078
:10485800FDFB236862499A6BFFF7E4FC03F0F6FB63
:104868002368604ADB6B002102F01FFE03F0EEFBB9
:1048780023685D4A1B6C002102F017FE03F0E6FB7B
:1048880023685A495A6CFFF7D2FC03F0DFFB236810
:10489800574A5B6D002102F008FE03F0D7FB23683E
:1048A800544A9B6D002102F000FE03F0CFFB236801
:1048B80051499A6EFFF7BBFC03F0C8FB23684F49C8
:1048C8009A6FFFF7AFFC03F0C1FB23684C49DA6F1E
:1048D800FFF7A8FC03F0BAFB23684A4AD3F88030F4
:1048E800012102F0E2FDFFF7F9FB00F0B5FC2868B2
:1048F800FFF7A6FD23689B6F012B01D100F0A2FBF7
:1049080001F05CFD30602368224DD86F002831D05B
:1049180003F09CFB044602F066FF014602A802F081
:104928008FFE2B68384ADB6F00930121029B2046DB
:1049380002F0BBFD02A802F087FC022002F078FF1B
:104948002A68324BD26F1B68012102A802F0FEF8D8
:1049580003F07CFB044602F046FF014602A802F081
:104968006FFE029A2A492046FFF761FC02A802F06E
:104978006BFC01E002F05CFF03F068FB4FF4E131EF
:1049880003F058FB07B0F0BDB8D40320CCD4032003
:10499800F4D70320ECD70320BCD40320FCD7032092
:1049A80019DB0D00C0D403207DD20D0040D80320B0
:1049B8009DD20D00D8E50320B2D20D0008E40320F3
:1049C800C2D20D00D2D20D00DDD20D00EFD20D0003
:1049D800FFD20D000AD30D0017D30D0028D30D0008
:1049E80038D30D0047D30D0062D30D0081D30D00DD
:1049F8009DD30D00BAD30D00D2D30D00EBD30D001B
:104A0800FFD30D0013D40D003DD20D0000D80320B4
:104A18006DD20D0010B52421044604F01DFC20467B
:104A280010BD00002A4B70B500251D6001F00EFC7A
:104A38008820FFF72CFB0446D8B18822294605F0C8
:104A480077FC2449201D02F046FC224904F1140099
:104A580002F041FC1F4904F1440002F03CFC1D49EE
:104A680004F1580002F037FC1A4904F1680002F01A
:104A780032FC194B1C60194C251D00261022002100
:104A8800284605F055FCE560256166612046144C12
:104A9800144A1549251D04F0D1FB10223146284639
:104AA80005F046FC0F4A11496661E560256120461C
:104AB80004F0C4FB04210E4800F01CFE094A0D490D
:104AC8000B4804F0BBFB0C4B1A680C4B1A6070BD0A
:104AD80000D8032019DB0D00ECD7032028D80320C9
:104AE800D4D70320D0D7032067420D00A5420D007C
:104AF80004D8032011410D00CCD40320FCD7032097
:104B080001F0A4BB01F0A2BB38B50D4CA4F5AA6511
:104B180004F1680002F098FB04F1580002F094FBDD
:104B280004F1440002F090FB04F1140002F08CFB45
:104B3800201D883C02F088FBAC42E9D138BD00BF9B
:104B480028DD032008B502F039FC003018BF012029
:104B580008BD000038B50E4D04462946043002F061
:104B6800BAFB294604F1140002F0B5FB294604F10A
:104B7800440002F0B0FB294604F1580002F0ABFBF8
:104B8800294604F1680002F0A6FB204638BD00BFA4
:104B980019DB0D00F8B5054616461C46071D41B938
:104BA800BA4206D002F1100103F11000FFF7CAFF64
:104BB80000E001203B463246214604F0B6FB6B6913
:104BC80001336B612046F8BD2DE9F0418D6804463C
:104BD8000F4690460E1D01205DB105F110014046BB
:104BE800FFF7B0FF18B1AB682E461D46F4E7EB6837
:104BF800FAE748B1FB689E4201D125600DE03046D6
:104C080004F091FB054600E03546414605F11000E9
:104C1800FFF798FF18B100232360666001E0256064
:104C280060602046BDE8F0812DE9F8431F460B1D62
:104C38009A4204460E4615460DD14B69002B4BD0BF
:104C4800086939461030FFF77DFF002844D000235B
:104C5800236033693EE002F1100949463846FFF700
:104C680071FF8046A0B1F368AB4201D1236031E007
:104C7800284604F058FB394680461030FFF762FF9B
:104C880050B3D8F80C300BB923601DE0256017E04D
:104C980039464846FFF756FFC8B13369AB4202D1DF
:104CA800C4F8008016E0284604F02AFB804600F18C
:104CB80010013846FFF746FF70B1EB6813B923605F
:104CC80065600EE0C4F80080C4F8048009E025603F
:104CD800606006E0636004E03A4631462046FFF72C
:104CE80073FF2046BDE8F8832DE9F341071D856869
:104CF800064688463C4665B1414605F11000FFF777
:104D080021FF18B9AB682C461D46F4E7EB68254629
:104D1800F9E7A74205D004F110014046FFF712FF5A
:104D280010B32420FFF7B3F910F11007054605D09A
:104D38004146384602F0F1FA00232B6222463B46F0
:104D480031466846FFF770FF019A009C32B1214650
:104D58002B463046FFF71EFF044605E0384602F0B2
:104D680073FA2846FFF797F904F1200002B0BDE86E
:104D7800F0810000000000002DE9F047882086B08F
:104D8800FFF785F9044630B18822002105F0D0FAF2
:104D98002046FFF7DFFEA2460C234AF8043B84496D
:104DA800504602F0C5FA834904F1140002F0C0FA33
:104DB8000FF2EC19D9E900897F4B63627AA7D7E92A
:104DC80000674523A36300257C4B2364C4E90A8953
:104DD800C4E90C67E5637A4904F1440002F0A8FAD3
:104DE8006565784904F1580002F0A2FA764904F1A1
:104DF800680002F09DFA0123A3670423C4F88030F9
:104E0800E56751467148FFF76FFF04608820FFF798
:104E18003EF9044630B18822294605F089FA204631
:104E2800FFF798FEA2460E234AF8043B684950460D
:104E380002F07EFA674904F1140002F079FA5E4B39
:104E480063624523A3630025634B2364C4E90A898D
:104E5800C4E90C67E563614904F1440002F068FAAB
:104E680065655F4904F1580002F062FA5D4904F192
:104E7800680002F05DFA0123A3670323C4F88030B9
:104E8800E56751465148FFF72FFF04608820FFF778
:104E9800FEF8044630B18822294605F049FA204632
:104EA800FFF758FEA2460E234AF8043B4E495046E7
:104EB80002F03EFA4D4904F1140002F039FA3E4B73
:104EC800636245230025A363494B2364C4E90C6747
:104ED800E563C4E90A89474904F1440002F028FA65
:104EE8006565454904F1580002F022FA424904F187
:104EF800680002F01DFAE5670123344DA367022319
:104F0800C4F8803051462846FFF7EEFE046002A838
:104F18002C1D01F0C9FCAE68254666B102A906F150
:104F28001000FFF70FFE18B9B36834461E46F4E7C1
:104F3800F3682646F9E7AC4205D004F1100102A84F
:104F4800FFF700FED8B12420FFF7A1F810F11006F2
:104F5800054605D002A9304602F066F900232B6207
:104F68002246334619496846FFF75EFE019A009CBF
:104F780072B121462B461548FFF70CFE04461F4B1D
:104F8800226A1A6002A802F05FF906B0BDE8F0874D
:104F9800304602F059F92846FFF77DF8EFE700BFE1
:104FA800C98DC7B19AED474090696D1ADB7D5EC027
:104FB80021D40D003AD40D00E07F01001DEA06005F
:104FC80045D40D0056D40D0061D40D0028D8032017
:104FD8006AD40D0083D40D00EF01080090D40D00B1
:104FE800A1D40D00ACD40D00B5D40D00CED40D0065
:104FF800F0010800DBD40D0019DB0D00ECD703200D
:1050080038B501F023F9084D002428198834FFF732
:10501800A1FDB4F5AA6FF8D1044A05490020BDE8FE
:10502800384004F00BB900BF60D80320D0D7032064
:10503800114B0D0008B502F0C1F9003018BF01206E
:1050480008BD000010B5ADF5047D02F0FFFF27494B
:1050580002F0F2F9264B1B685C6902F0C4FB224699
:105068000346244904A801F05FFC234B186804F0A8
:105078006FFC04AACDE900012049104601F054FC58
:1050880001F00AFCD8B11E4B1E491B788DF8003080
:1050980004AA3C2302A802F089FD039C7CB1636842
:1050A800013B63605BB9236820469B689847A36807
:1050B800013BA3601BB923682046DB689847124C64
:1050C80000221146606801F0A7FB28B104AA0D4927
:1050D80004F1080003F098FA02F0B8FF04AB0B4A99
:1050E800012102F0E2F90DF5047D10BDEDD40D00AB
:1050F800ECD70320FBD40D00F8D7032010D50D0002
:10510800B0DD03201CD50D0008E4032026D50D00D2
:10511800F0B58DB005460C4602F098FF264B274A9D
:10512800002C18BF2346009301212B4602F0BDF93D
:105138002D21284605F03AF900283AD004AE411C42
:10514800304602F0C8F821461D4C08A802F0C3F802
:1051580004346568274665B1314605F11000FFF74C
:1051680069FF18B9AB682C461D46F4E7EB6825467D
:10517800F9E7BC4211D004F110013046FFF75AFF9D
:1051880058B908A904F1200002F0B8F808A802F0FC
:105198005BF8304602F058F80BE00CAB02AA43F873
:1051A800246D214600920648064AFFF7AFF80446E8
:1051B800E7E70DB0F0BD00BF35D50D003AD50D00BD
:1051C800D4D70320ECD40D00024B00221A7001F052
:1051D8003DB800BFB0DD032010B50446043002F02E
:1051E80033F8204610BD10B504463C3002F02CF8C8
:1051F80004F1280002F028F8204602F025F820469D
:1052080010BD000038B584690A4B036005467CB1BF
:105218006368013B63605BB9236820469B689847D5
:10522800A368013BA3601BB923682046DB68984745
:10523800284638BD18DE0D0010B50446FFF7E2FF1A
:10524800204610BD10B50446FFF7DCFF20461C21A0
:1052580004F002F8204610BD13B502F0F7FE094924
:1052680002F0EAF802F0F2FE074B0446186804F070
:105278006FFB064ACDE900010121204602F015F92D
:1052880002B010BD46D50D00F8D7032059D50D0042
:1052980070B51D4C1D4D1E4E00F0D8FF204600F085
:1052A80047F820461B4C1C492A4603F0C7FF3146E5
:1052B800204602F010F804F1100002F017FE314603
:1052C80004F1280002F007F8314604F13C0002F02E
:1052D80002F82046114C12492A4603F0AFFF314626
:1052E800201D01F0F8FF20460E4C0F492A4603F016
:1052F800A5FF204603F0C4FD2A4620460B49BDE819
:10530800704003F09BBF00BFD0DD0320D0D703203F
:1053180019DB0D0000E2032041520D00ECE10320EF
:10532800EF510D00B4DD0320E1510D000D520D00C9
:1053380010B5044603F0A4FD204610BD00F086BF5A
:1053480008B500F083FF014B186008BD4CE203204C
:10535800F0B5447EBDF81450022C08D0032C0FD0B1
:10536800012C70D10489013CA21A12B20CE04489C4
:10537800013CA21A0489E41A611A12B209B262E065
:105388004489E41A611A09B2002A5BDBB0F90840C3
:10539800944240F390800029BEBF5B181BB20021E5
:1053A800B0F90A00CC188442C4BF431A1BB2002BC0
:1053B80040F38180C9B2C8083F4F02EBC01211F018
:1053C8000701DBB207EB020417D0C1F10801C8B22C
:1053D8003A4983420E5C3FBFC3EB000EFF2141FAFE
:1053E8000EF10E40B95C012D0CBF3143B14383422D
:1053F800B95460D3181AC3B28034072B17D9012DBA
:105408000CBFFF20002004F180011A46083AD2B2EE
:10541800072A01F8800C01F18001F7D8A3F10802EE
:10542800C2F3C402013204EBC21403F00703002BD9
:1054380041D0234AD25C2378012D0CBF13439343F8
:105448002370F0BDF0BD002A35DBB0F90A40944264
:1054580031DD0029BCBFC9180BB2B0F90870B8BF5C
:105468000021CE18BE42C4BF631A1BB2002B22DD36
:10547800D01001EBC011104802F0070201440120CE
:1054880000FA02F28542D2B209D1013B1BB25C1C80
:1054980011D011F8010B104301F8010CF5E7D243C4
:1054A800D2B2013B1BB2581C05D011F8010B1040B9
:1054B80001F8010CF5E7F0BDE0D40320D8D40320AF
:1054C800D0D40320F0B5447EBDF81450022C08D087
:1054D800032C0FD0012C12D10489E41AA21A12B29B
:1054E8006DE00489013C611A4489E41AA21A09B2E0
:1054F80012B204E04489013C611A09B25FE0002954
:105508005CDBB0F908408C4240F39180002ABCBFB4
:10551800D21813B2B0F90A00B8BF0022D4188442D6
:10552800C4BF831A1BB2002B40F38180D4B2404E13
:10553800DAB2E30801EBC31114F0070406EB010328
:1055480017D0C4F10804E0B23A4C8242275C3FBF4E
:10555800C2EB000EFF2444FA0EF42740745C012DC0
:105568000CBF3C43BC438242745460D3101AC2B28D
:105578008033072A17D9012D0CBFFF24002403F11B
:10558800800011460839C9B2072900F8804C00F19B
:105598008000F7D8A2F10801C1F3C401013103EB7F
:1055A800C11302F00702002A41D02349895C1A7806
:1055B800012D0CBF0A438A431A70F0BDF0BD0029C3
:1055C80035DBB0F90A408C4231DD002ABCBFD21865
:1055D80013B2B0F90870B8BF0022D618BE42C4BFD3
:1055E800A31A1BB2002B22DDC81002EBC012104810
:1055F80001F007011044012202FA01F19542C9B2F3
:1056080009D15A1E13B25C1C11D010F8012B0A43A1
:1056180000F8012CF5E7C943C9B25A1E13B25A1C47
:1056280005D010F8012B0A4000F8012CF5E7F0BD71
:10563800E0D40320D8D40320D0D4032010B42AB156
:10564800194606485DF8044B01F076BA0122C9B242
:10565800C0B25DF8044B03F08BBD00BFE8E5032042
:10566800F8B50D1E064614461F463FDB00F0AAFBA0
:1056780085423BDA002C39DB304600F0A6FB844239
:1056880034DA304600F09CFB022827D13189708932
:1056980001390138491B001B0DB204B206E001288C
:1056A80004D13389013B1B1B2C461DB20820012F56
:1056B80094FBF0F000B20E4B04F0070205EBC011AA
:1056C80004D197405A5C17435F54F8BD585C0127D2
:1056D80007FA02F220EA02025A54F8BD0328DED182
:1056E8007389013B5B1B25461CB2DFE7F8BD00BF91
:1056F800E0D4032038B5202204460D46802100F06E
:1057080075FA064B2360FF23637784F82130E3772B
:10571800A37784F82050204638BD00BF9CD50D00E3
:1057280038B590F91D30013304460D4622D090F962
:105738002100012180B203F0D8FC94F91F00002158
:1057480080B203F0D2FC94F92100002180B203F06A
:10575800CCFC94F91E1094F91D0094F822202B46D5
:10576800FFF76CFF94F92100012180B2BDE83840B1
:1057780003F0BBBC03F042FD94F91B1002F06AFD74
:1057880003F03CFD036800219B68984703F036FD51
:10579800036829469B68984703F030FDBDE8384008
:1057A80002F05FBD38B504460D46217790F91D30EB
:1057B800C276013333D090F91F00012180B203F083
:1057C80083FC94F92100012180B203F07DFC94F858
:1057D80022305BB994F91D00012180B203F074FCFA
:1057E80094F91E00012180B203F06EFC94F8223077
:1057F800CBB194F92100012180B203F076FC01219C
:105808004E4801F038F910214C4801F081F9002187
:105818004A4801F033F9494801F028F903E003F058
:10582800EDFC02F00DFD94F92000012180B203F097
:105838004BFC94F92000012180B203F056FC0120B2
:1058480001F0F6FF94F92000002180B203F04DFC2E
:105858000A2001F0EDFF94F92000012180B203F045
:1058680044FC2046AE21FFF75BFF2046D521FFF719
:1058780057FF20468021FFF753FF2046A821FFF756
:105888004FFF20461F21FFF74BFF2046D321FFF78C
:1058980047FF20460021FFF743FF20464021FFF73E
:1058A8003FFF8D212046FFF73BFF012D0CBF102144
:1058B80014212046FFF734FF20462021FFF730FF50
:1058C80020460021FFF72CFF2046A121FFF728FFE3
:1058D8002046C821FFF724FF2046DA21FFF720FFE2
:1058E80020460221FFF71CFF20468121FFF718FF01
:1058F80020468F21FFF714FFD9212046FFF710FF1C
:10590800012D0CBF2221F1212046FFF709FF204677
:10591800DB21FFF705FF20464021FFF701FF204666
:10592800A421FFF7FDFE2046A621FFF7F9FE204639
:10593800AF21BDE83840FFF7F3BE00BFE8E503201C
:105948002DE9F04121210446FFF7EAFE0021204617
:10595800FFF7E6FE7F212046FFF7E2FE22212046E0
:10596800FFF7DEFE00212046FFF7DAFE032120467E
:10597800FFF7D6FE94F91D30DFF8AC8001332ED046
:1059880094F92100012180B203F0AFFB94F91F00C4
:10599800012180B203F0A9FB94F92100002180B213
:1059A80003F0A3FB012000F001FD002518F80530E5
:1059B80094F8222094F91E1094F91D000135FFF780
:1059C8003DFEB5F5007FF1D1012000F0EFFC94F920
:1059D8002100012180B2BDE8F04103F086BB00251B
:1059E80003F00CFC94F91B1002F034FC03F006FCE5
:1059F800036840219B689847002603F0FFFBAF1916
:105A08000368BFB29B6818F8071001369847102E34
:105A1800F3D1103503F0F2FBADB202F022FCB5F57C
:105A2800007FDDD1BDE8F081E0D403204FF400729F
:105A38000021014804F07CBCE0D4032000F006BC3F
:105A48002DE9F04F85B01E46BDF93830BDF83CA0B1
:105A580015469A1A002AB8BF52420092721A002AB2
:105A6800B8BF524201920C46009A01998A42814677
:105A780005DD32461E46134622462C461546B442DC
:105A880005DD2A461D4613462246344616465A1B4D
:105A9800002AB8BF5242C4EB06089D42B4BF012396
:105AA8004FF0FF331FFA88F8029303920FFA88F732
:105AB800022297FBF2F7B4421FDC019A009B934243
:105AC800D9F80030C8BF2246D3F810B0C8BF29465D
:105AD8005346DCBF2A4621464846D847039BFF1A4F
:105AE800BBB21FB2002F05DA029A08EB0307154470
:105AF8002DB23FB2013424B2DDE705B0BDE8F08F26
:105B08002DE9F347BDF82C600768BDF928A0009679
:105B18000446FF6991460D469846B84723680096A3
:105B28000AF1FF324A44DF6929464346204612B249
:105B3800B847236800969F694A4653462946204637
:105B4800B84723680A9608F1FF3129449D694A46F7
:105B5800534609B22046AC4602B0BDE8F04760475C
:105B680037B5013B13440468BDF8185001951BB2C2
:105B7800009364690B46A04703B030BD37B5BDF844
:105B8800185004688DE82400013B0B4464691BB27B
:105B9800A04703B030BD2DE9F347BDF92880BDF813
:105BA8002C90054617460C4601EB030A54450BDAC0
:105BB8002B68CDF800909E69214643463A46284610
:105BC8000134B04724B2F1E702B0BDE8F08713B55D
:105BD800B0F90E200468019100920022B0F90C304F
:105BE800646A1146A04702B010BD704730B5018104
:105BF8000024084D42818181C2814FF6FF71012244
:105C0800446005604476048244820276C1828182BF
:105C1800827630BDD4D50D002DE9F04F8FB0054602
:105C28000691BDF860100791BDF864100891B0F9AD
:105C38000C1006989DF8688081427CDDB5F90E103D
:105C4800914278DD062111FB0800002873DD02EB84
:105C5800C80000286FDD03EB830396B20C9306F1AE
:105C680008039BB2099100240D93052C1CBF334BEC
:105C78000C9A059616BF1B194FF0000913F80290ED
:105C880004961FFA88F30393039ABDF8183004FBAF
:105C9800023213FA84F312B21BB20A9237460FFA91
:105CA80088FA0B9319F0010F11D0B8F1010F2B6886
:105CB80003D1D3F810B0079B14E0079A0192CDF8EE
:105CC80000A0D3F824B0BDF91020534618E0079B74
:105CD800089A934217D0B8F1010F2B6807D1D3F86F
:105CE80010B013463AB20B992846D8470BE0089AE9
:105CF8000192CDF800A0BDF91420D3F824B0534682
:105D08000A992846D847049B039A13449BB20493E4
:105D1800059B13449BB2013705930D9BBFB29F426D
:105D28004FEA5909BED1099B013B013413F0FF0327
:105D380064B2099399D10FB0BDE8F08F04D60D0075
:105D480030B50A2985B004460B4604D1027E438A41
:105D580003EBC20323E00D2924D0057EB0F91220FD
:105D6800B0F910100295C58A0195858A0095FFF74C
:105D780053FF227E238A91B201EB410003EB4003DB
:105D8800A07E1BB2238268B1B4F90C006FF0050540
:105D980005FB0202934205DD638A03EBC1036382BC
:105DA80000232382012005B030BD01824282704762
:105DB800002908BF012101767047C182818270479E
:105DC800407E7047B0F90C007047B0F90E0070477C
:105DD80000F03CBA10B50446006898B10368182171
:105DE8001B68984770B1002303600123037263683E
:105DF8002BB11A680AB11346FBE7186000E060602F
:105E0800083010BD004810BD60E2032008B500F05E
:105E18001DFA024B00221A605A6008BD50E20320A6
:105E280038B505466C68207804F062F910B1013481
:105E38006C60F7E738BD38B504460D46FFF7F0FF4C
:105E480063681A78AA4206D1013320466360FFF7D7
:105E5800E7FF012038BD002038BD10B5013911F821
:105E6800012F32B143681C78944202D10133436058
:105E7800F5E7B2FA82F0400910BD0000F8B5044613
:105E8800006800F06DF97B2105462046FFF7D3FF37
:105E980008B91748F8BD7D212046FFF7CCFF28BB7D
:105EA800271D3946606800F0E1F806460028F0D062
:105EB8003A212046FFF7BFFF0028EAD0314628469E
:105EC80000F012F906460146204600F013F8337830
:105ED800012BDED97D212046FFF7ADFF30B92C21FB
:105EE8002046FFF7A8FF0028DBD1D2E72846F8BDF7
:105EF80058E2032073B5037A04460D46002B79D087
:105F0800013B0372FFF78CFF60680378392B0BD8CD
:105F1800302B3CD2272B50D002D8222B4DD053E027
:105F28002D3B012B33D94FE06E2B3ED004D85B2B91
:105F38000ED0662B14D047E0742B11D07B2B43D1A5
:105F48002046FFF79BFF0146284600F05EF93BE03C
:105F5800204600F059F80146284600F050F933E091
:105F680025492046FFF779FF064608B1012105E0DB
:105F780022492046FFF771FF20B13146284600F03C
:105F880025F921E01E4B0FCB85E80F001CE00A2203
:105F980001A905F02FFE019A13782E2B014617D080
:105FA80003F0DF03452B20D112E016492046FFF706
:105FB80054FF0028E6D0002103E0211D00F056F828
:105FC8000146284600F008F9237A0133237211E0CC
:105FD800211D606805F080FD63680199591A01392F
:105FE800C9B2284600F0FEF8EEE76260284600F0E5
:105FF80000F9E9E702B070BDFFDA0D0004DB0D001F
:1060080060E203200ADB0D0070B50546006800F069
:1060180097F85B2104462846FFF70DFF08B910489A
:1060280070BD5D212846FFF706FFB0B92046FFF78F
:10603800D1FE064601462846FFF75CFF3378012B60
:10604800EDD95D212846FFF7F6FE30B92C21284608
:10605800FFF7F1FE0028E9D1E1E7204670BD00BF57
:1060680050E2032000F0F2B800F0F0B8F0B505787F
:10607800222D03D0272D01D00020F0BD0130044689
:1060880002461378561C002BF6D09D4210D05C2B8C
:106098000AD1961C5378084A17782FB1BB4201D110
:1060A800537801E00232F7E704F8013B3246E8E7AB
:1060B800002323700E60F0BD0FDB0D0000F0C6B8A2
:1060C80000F0C4B800F0C2B800F0C0B838B54468F1
:1060D8000D4634B12946A06804F076F908B1246861
:1060E800F7E7204638BD000038B504460D46FFF7EF
:1060F800EDFFA0B92068A0B1036820211B6898476C
:1061080078B10023036001230374856063682BB1B1
:106118001A680AB11346FBE7186000E060601030A7
:1061280038BD014838BD00BF60E2032008B500F063
:106138008DF8024B00221A605A6008BD58E203200D
:1061480010B5036808211B680446984718B1002356
:106158000460436010BD014810BD00BF50E2032039
:1061680010B5036808211B680446984718B1002336
:106178000460436010BD014810BD00BF58E2032011
:106188001FB5019001A802918DF80C20FFF776FE4B
:1061980005B05DF804FB00F059B800F057B80000EE
:1061A8000378062B02D990ED020B70479FED020B86
:1061B800704700BFAFF3008000000000000000003F
:1061C8000378062B0CBF806800207047037813B152
:1061D8000423037001727047037813B10523037019
:1061E8008160704703781BB180ED020B07310170A5
:1061F8007047037813B106230370816070470378F2
:1062080013B10223037081607047037813B103232D
:10621800037081607047000008B500F017F8024B62
:1062280000221A7008BD00BF60E2032008B5024BC7
:106238001B689B68019308BD6802030008B5024B00
:106248001B68DB68019308BD6802030008B5024BB0
:106258001B681B68019308BD2C02030008B5024B9C
:106268001B685B68019308BD2C02030008B5024B4C
:106278001B689B68019308BD2C02030008B5024BFC
:106288001B68DB68019308BD2C02030008B5024BAC
:106298001B681B69019308BD2C02030008B5024B5B
:1062A8001B685B69019308BD2C02030008B5024B0B
:1062B8001B681B6B019308BD2C02030008B5024B39
:1062C8001B681B68019308BD3002030008B5024B28
:1062D8001B689B68019308BD3002030008B5024B98
:1062E8001B68DB68019308BD3002030008B5024B48
:1062F8001B681B69019308BD3002030008B5024BF7
:106308001B685B69019308BD3002030008B5024BA6
:106318001B68DB69019308BD3002030008B5024B16
:106328001B681B6A019308BD3002030008B5024BC5
:106338001B685B6A019308BD3002030008B5024B75
:106348001B681B69019308BD6C02030008B5024B6A
:106358001B685B69019308BD6C02030008B5024B1A
:106368001B689B69019308BD6C02030008B5024BCA
:106378001B685B6D019308BD6C02030008B5024BF6
:106388001B689B6D019308BD6C02030008B5024BA6
:106398001B685B68019308BD1802030008B5024B2F
:1063A8001B689B68019308BD1802030008B5024BDF
:1063B8001B68DB68019308BD1802030008B5024B8F
:1063C8001B685B69019308BD1802030008B5024BFE
:1063D8001B68DB69019308BD1802030008B5024B6E
:1063E8001B689B6D019308BD1802030008B5024B9A
:1063F8001B685B6E019308BD3402030008B5024BAD
:106408001B685B68019308BD4802030008B5024B8E
:106418001B689B68019308BD4802030008B5024B3E
:106428001B68DB68019308BD4802030008B5024BEE
:106438001B681B69019308BD4802030008B5024B9D
:106448001B685B69019308BD4802030008B5024B4D
:106458001B681B6B019308BD4802030008B5024B7B
:106468001B685B6C019308BD4802030008B5024B2A
:106478001B68DB6C019308BD4802030008B5024B9A
:106488001B685B6D019308BD4802030008B5024B09
:106498001B68DB6E019308BD4802030008B5024B78
:1064A8001B685B69019308BD6402030008B5024BD1
:1064B8001B689B69019308BD6402030008B5024B81
:1064C8001B681B6A019308BD6402030008B5024BF0
:1064D8001B685B6A019308BD6402030008B5024BA0
:1064E8001B689B6A019308BD6402030008B5024B50
:1064F8001B681B68019308BD3C02030008B5024BEA
:106508001B68DB68019308BD3C02030008B5024B19
:106518001B681B69019308BD3C02030008B5024BC8
:106528001B685B69019308BD3C02030008B5024B78
:106538001B689B69019308BD3C02030008B5024B28
:106548001B68DB69019308BD3C02030008B5024BD8
:106558001B681B6A019308BD3C02030008B5024B87
:106568001B689B6A019308BD3C02030008B5024BF7
:106578001B68DB68019308BD2802030008B5024BBD
:106588001B689B69019308BD2802030008B5024BEC
:106598001B68DB69019308BD2802030008B5024B9C
:1065A8001B681B6A019308BD2802030008B5024B4B
:1065B8001B685B6A019308BD2802030008B5024BFB
:1065C8001B689B6A019308BD2802030008B5024BAB
:1065D8001B68DB6A019308BD2802030008B5024B5B
:1065E8001B681B6B019308BD2802030008B5024B0A
:1065F8001B685B6B019308BD2802030008B5024BBA
:106608001B681B6C019308BD2802030008B5024BE8
:106618001B685B68019308BD3802030008B5024B8C
:106628001B689B69019308BD3802030008B5024B3B
:106638001B68DB69019308BD3802030008B5024BEB
:106648001B681B6A019308BD3802030008B5024B9A
:106658001B689B6A019308BD3802030008B5024B0A
:106668001B68DB6A019308BD3802030008B5024BBA
:106678001B681B6B019308BD3802030008B5024B69
:106688001B685B6B019308BD3802030008B5024B19
:106698001B689B6B019308BD3802030008B5024BC9
:1066A8001B681B68019308BD4C02030008B5024B28
:1066B8001B685B68019308BD4C02030008B5024BD8
:1066C8001B681B69019308BD4C02030008B5024B07
:1066D8001B685B69019308BD4C02030008B5024BB7
:1066E8001B689B69019308BD4C02030008B5024B67
:1066F8001B68DB69019308BD4C02030008B5024B17
:106708001B681B6A019308BD4C02030008B5024BC5
:106718001B681B6D019308BD7402030008B5024B8A
:106728001B685B6B019308BD6002030008B5024B50
:106738001B681B6D019308BD6002030008B5024B7E
:106748001B681B68019308BD2002030008B5024BB3
:106758001B685B68019308BD2002030008B5024B63
:106768001B685B69019308BD2002030008B5024B52
:106778001B689B69019308BD2002030008B5024B02
:106788001B68DB6C019308BD2002030008B5024BAF
:106798001B685B6D019308BD2002030008B5024B1E
:1067A8001B689B6D019308BD2002030008B5034BCD
:1067B8001B68D3F88830019308BD0000200203004D
:1067C80008B5034B1B68D3F89430019308BD00004B
:1067D8002002030008B5034B1B68D3F8A4300193CB
:1067E80008BD00002002030008B5024B1B685B6867
:1067F800019308BD4002030008B5024B1B689B6863
:10680800019308BD4002030008B5024B1B68DB6812
:10681800019308BD4002030008B5024B1B681B69C1
:10682800019308BD4002030008B5024B1B685B6971
:10683800019308BD4002030008B5024B1B689B6921
:10684800019308BD4002030008B5024B1B68DB69D1
:10685800019308BD4002030008B5024B1B681B6A80
:10686800019308BD4002030008B5024B1B681B6B6F
:10687800019308BD4002030008B5024B1B685B6B1F
:10688800019308BD4002030008B5024B1B689B68D2
:10689800019308BD4402030008B5024B1B685B69FD
:1068A800019308BD4402030008B5024B1B68DB696D
:1068B800019308BD4402030008B5024B1B681B6A1C
:1068C800019308BD4402030008B5024B1B68DB6A4C
:1068D800019308BD4402030008B5024B1B681B6BFB
:1068E800019308BD4402030008B5024B1B68DB6B2B
:1068F800019308BD4402030008B5024B1B681B68DE
:10690800019308BD1C02030008B5024B1B685B68B5
:10691800019308BD1C02030008B5024B1B689B6865
:10692800019308BD1C02030008B5024B1B68DB6815
:10693800019308BD1C02030008B5024B1B681B69C4
:10694800019308BD1C02030008B5024B1B689B6934
:10695800019308BD1C02030008B5024B1B68DB69E4
:10696800019308BD1C02030008B5024B1B681B6A93
:10697800019308BD1C02030008B5024B1B685B6A43
:10698800019308BD1C02030008B5024B1B68DB6AB3
:10699800019308BD1C02030008B5024B1B681B6B62
:1069A800019308BD1C02030008B5024B1B68DB6B92
:1069B800019308BD1C020300002211464068FFF73E
:1069C8004BBF002211464068FFF756BF00224068BF
:1069D800FFF74ABF002281F001014068FFF734BF8A
:1069E80000231A4619464068FFF726BF00231A46B7
:1069F80019464068FFF718BF002211464068FFF7A4
:106A08000BBF002211464068FFF7F6BE00220221A4
:106A18004068FFF7F9BE00231A464068FFF7E4BE56
:106A2800024B03225A60024A1A60704770E2032040
:106A380024DB0D00704710B51021044602F00CFC51
:106A4800204610BD70B5084B0360044600250E466D
:106A580040F80C5FFFF7FAFC30462671FFF756FC4A
:106A6800A560204670BD00BF58DB0D004FF6FF71D2
:106A78000079FFF723BC0079FFF728BC0079FFF7FE
:106A88002DBC0000054A0023995C814202D00133E5
:106A9800082BF9D1581CC0B2704700BF60DB0D004D
:106AA800400830B51860002418688842E5B206D955
:106AB8000134082C02D040081860F5E70725024B7E
:106AC8005B5D137030BD00BF60DB0D0070B588B032
:106AD800067902FB01F504461422002103A803F0FD
:106AE80027FC0B2303A930460022ADF80C30FFF732
:106AF8001DFC02AB0DF1070229460498FFF7D0FFF1
:106B080020799DF80710FFF7F1FB029808B070BDD7
:106B180038B504460846A5684DB1FFF7B3FF012212
:106B280025FA00F12046BDE83840FFF7CFBF2079AD
:106B3800BDE83840FFF7DABB08B50079FFF7DEFBA0
:106B4800C0B208BD0079FFF7E9BB000010B50446E4
:106B5800084611461A460023FFF708FE064B002296
:106B68001A704FF6FF7258809A801A689B882260C4
:106B7800A380204610BD00BF78E20320044B00200C
:106B88004FF6FF72187058809A80FFF7DFBD00BF7C
:106B980078E2032010B40468246BA4465DF8044B23
:106BA800604703689B6C1847808E7047028FC08EC1
:106BB800101A704713B502AB026803F8011DD468B8
:106BC80019460122A04702B010BD10B503681B6921
:106BD8000446984728B1E38EE26B591CE186D05CE5
:106BE80010BD4FF0FF3010BD10B503681B69044697
:106BF800984718B1E38EE26BD05C10BD4FF0FF30C0
:106C080010BD704710B403460846DC6BD98E1A8F46
:106C18000368521ADB6821445DF8044B1847A0F159
:106C28001000FFF7EFBFF0B503688DB01C265B6A54
:106C380004460F461546984701233246002105A809
:106C4800029303F075FB8DF8146038460A268DF818
:106C58001560FFF743FC1122ADF8160002213046FB
:106C6800FFF714FD0028606124DB0422009202ABC8
:106C780040F6FF71FFF7D2FCE0B995B10390ADF88B
:106C8800100003A9E8B2FFF761FB98B90623009347
:106C980041F20B0203AB40F6FF716069FFF7BEFCDF
:106CA80040B91C2205A96069FFF7B0FC10B96564FA
:106CB800012004E0236820465B6A984700200DB055
:106CC800F0BD10B504464069002801DBFFF7AEFCB3
:106CD8004FF0FF3363610023E386238710BD38B587
:106CE800C36B0546C08E13B12C6C241A00E01C46F9
:106CF800944228BF14462246184403F00EFBEB8E3C
:106D08002344EB86204638BD70B503681B690446EA
:106D18000E461546984788B1236820461B69984750
:106D2800E38EE16B8542A8BF054619442A463046E2
:106D380003F0F3FAE38E2B44E38601E04FF0FF35CE
:106D4800284670BD70B50446054B44F8043B01F174
:106D5800200506460FCD0FC42B682370304670BD42
:106D6800FCDC0D00F0B59446026889B0976A0A4ABF
:106D780002921D1D8E4606460FCD03AC0FC42B682C
:106D88002370BDF838300093624602AB7146304636
:106D9800B84709B0F0BD00BFFCDC0D00F0B50368D2
:106DA800B0F836E09F6A0D4B89B000F12006044622
:106DB80002930FCE03AD0FC533682B70A38E0093DB
:106DC800724602ABE16B2046B84723680546DB698B
:106DD80020469847284609B0F0BD00BFFCDC0D00EE
:106DE800F0B54378022B8DB005460C46174601D105
:106DF800011D33E00A2B35D11122002101A803F02F
:106E080097FAAB6843B9EB6833B94FF6FF702E6950
:106E1800FFF754FB86421FD005F1080301AE05F1C8
:106E2800180E18685968324603C208337345164667
:106E3800F7D1062301A906A807AE8DF8143001F092
:106E480063F80FCE04340FC43368237057B16888D1
:106E5800FFF73CFB388005E005F11401204601F0FE
:106E680088F8F3E70DB0F0BD2DE9F0418EB00EAB18
:106E7800002506461746084643F8345D2A46294643
:106E8800FFF7DCF900281FDB019BFBB15B69EBB165
:106E980002A801F02BF8019B2A46586902A9FFF7BE
:106EA8009FFF02A801F042F880B1336803ADD3F820
:106EB80038800B4B08930FCD09AC0FC42B68237097
:106EC8003A4608A93046C047044601E04FF0FF346F
:106ED8000198FFF7ABF920460EB0BDE8F08100BF7E
:106EE800FCDC0D002DE9F047D0F81480B8F1000F54
:106EF8008CB005460C461746994600DB11B94FF091
:106F0800FF3035E04FF01C0A05AE524600213046EE
:106F180003F00EFACDF808A0B9F1000F14D04FF421
:106F28007A72B9FBF2F1039102FB11914A430823EB
:106F38000492009341F2060203AB40F6FF7140460B
:106F4800FFF76CFB08B113E0082002AB0193214660
:106F5800034600963A466869FFF780FB041E06DB85
:106F680005F1340205F11C013046FFF739FF2046D0
:106F78000CB0BDE8F08738B5054614462B7D062BC6
:106F8800084611D11C2313700A235370FFF7A6FA81
:106F9800083424F8060C2B1D143553F8042B44F838
:106FA800042BAB42F9D138BD042B0AD1102313703E
:106FB80002235370FFF792FA60806868FFF77EFA41
:106FC800606038BD2DE9F0438BB003AC1C259946B1
:106FD80006460F46904600212A46204603F0A8F9A7
:106FE8002246BDF848104846FFF7C5FF9DF80D300A
:106FF80043B18DE830000023424639467069FFF7F7
:107008003DFB01E04FF0FF300BB0BDE8F083F0B579
:1070180091B00C4606460021154609A81C221F46B9
:1070280003F086F909AA00212046FFF7A4FF9DF87E
:107038002530022B2ED1002305930A9B0493DDB142
:1070480002A92846FFF78AF9B0B910A941F8340D0A
:107058000298FFF78BF960B9039B53B1DA6812689D
:107068005178022903D152680AB1059201E01B68E0
:10707800F3E70398FFF782F9002F4FF00803009316
:1070880018BF032204AB08BF042200213046FFF7D3
:10709800C5FA1EE00A2B1AD104AC1422002120469E
:1070A80003F046F90BAB0FCB002F84E80F004FF02D
:1070B8001403009318BF0C22234608BF0D22292170
:1070C80030460895FFF7AAFA00EAE07001E04FF0B1
:1070D800FF3011B0F0BD000038B54FF47A7383600B
:1070E8000B4B03F108026C33002503614FF0FF33AB
:1070F80004464560026043611C3000F0F7FE4FF41F
:107108000073E5862587E56323646564204638BDFA
:1071180068DB0D0010B590F84830044623B1C06B09
:1071280010B1012102F098F80023E36384F8483095
:107138002364E386238710BD70B5044616460D46C2
:10714800FFF7E8FF0023E66323643EB935B128461C
:10715800FCF79FFF0123E06384F84830E36B03B139
:107168002564206C003018BF012070BDF8B51746A3
:10717800C26B05460C461AB9016C09B1FFF7DCFF72
:1071880004340FCC05F120060FC6236833700023A2
:10719800AF86EB862B87286CF8BD70B5C26B0446AA
:1071A8000E461AB9016C09B1FFF7C6FFE16B002260
:1071B800E286228749B1226C3AB1236820461D6BCA
:1071C8003346A8470028C8BF2087236820461B6984
:1071D800BDE870401847000010B5074B03F10802DE
:1071E8006C33044602600361FFF76BFD2046FFF72E
:1071F80091FF204610BD00BF68DB0D0010B50446A6
:10720800FFF7EAFF20464C2102F026F8204610BD81
:1072180002464069002804DB012392F84420FFF766
:10722800F6BE4FF0FF307047002303604360836071
:10723800037310B50C6804604C6844608C68846003
:107248000B604B608B6010BD10B504460068FFF7FB
:107258005BFB204610BD10B50446006808B1FFF777
:1072680053FB00232360A360636010BD38B5044658
:107278000D4600680131FFF74FFB10B184E821008B
:10728800012038BD10B50368044613B143688B422A
:1072980007D22046FFF7EAFF20B1A3680BB922689E
:1072A8001370012010BD70B50E46114604461546F0
:1072B800FFF7E8FF18B92046FFF7CDFF09E02A4697
:1072C8003146A560206803F028F82268A3680021E9
:1072D800D154204670BD38B500230446036043608E
:1072E800836003730D4639B1084603F0AFFD2946A4
:1072F80002462046FFF7D7FF204638BD884210B522
:107308000B46044607D0096819B19A68FFF7CBFF06
:1073180001E0FFF7A0FF204610BD10B5002304468A
:107328000360436083600373FFF7E8FF204610BDE6
:1073380038B505460C4641B1084603F087FD21469D
:1073480002462846FFF7AFFF01E0FFF784FF284613
:1073580038BD024600680B6808B15BB905E023B187
:10736800896811B118784042704738B1936823B1E1
:1073780000787047194603F027B81846704708B5D3
:1073880082688B689A4205D1FFF7E3FFB0FA80F074
:10739800400908BD002008BD08B582680B4612B92F
:1073A80019B9012008BD11B90368187802E000680E
:1073B80003F00AF8B0FA80F0400908BD08B5FFF7F5
:1073C800C8FFC00F08BDF8B506460D468F18002443
:1073D800BD420CD0336815F8011B9B6830469847AE
:1073E800002801DB0444F3E7002C08BF04462046CC
:1073F800F8BD70B505460C46084649B103F026FDB0
:107408002B68024621462846DB68BDE870401847CD
:1074180070BD08B5FFF7EDFF08BD03689B68184706
:1074280038B50D210546FFF7F8FF0A21044628461E
:10743800FFF7F3FF204438BD38B50546FFF7D9FFFD
:1074480004462846FFF7ECFF204438BD30B58BB022
:107458000B4600218DF82410012A98BF0A220DF14D
:107468002304B3FBF2F505FB123303F0FF03092BEA
:1074780094BF30333733DBB2214604F801392B4649
:10748800002DEED1FFF7B5FF0BB030BD10B42AB90F
:1074980003685DF8044B9B68C9B21847D2B25DF81F
:1074A800044BFFF7D3BFFFF7F1BF0CB42DE9F0434E
:1074B80087B000AF07F13804054654F8049B3C60D8
:1074C8000E4623464A461421381DFFF755FA13285D
:1074D80005D8391D2846FFF78CFF044613E000F154
:1074E800080323F00703E846ADEB030D411C2346D0
:1074F8004A4668463C60FFF73FFA69462846FFF768
:1075080078FF0446C5461EB12846FFF789FF0444A4
:1075180020461C37BD46BDE8F04302B070470068FE
:10752800FEF7A4BF38B5046805467CB16368013B23
:1075380063605BB9236820469B689847A368013B52
:10754800A3601BB923682046DB689847284638BDE6
:107558000B68036013B15A6801325A607047000023
:10756800014B024A1A60704780E2032088DC0D0054
:10757800F0B5144B144F1E68144B064418683B684A
:1075880006449E428BB01BD00AA801AD40F8286D76
:1075980002F0B8FD436903F26C73436104460FCCF3
:1075A8000FC50FCC0FC5D4F800E0C5F800E001AD59
:1075B8000FCD074C0FC40FCD0FC43E60C4F800E0D8
:1075C8000BB0F0BDB8E20320B4E20320B0E2032020
:1075D80084E2032008B50020FFF77EF928B1FFF701
:1075E8005BF980F00100C0B208BD012008BD0000B1
:1075F80008B5FFF7BDFF034B98680B28D4BF0020E0
:10760800012008BD84E20320FAEE087AB4EEE70A06
:10761800F1EE10FA0FD4F2EE0C7AB4EEE70AF1EEBE
:1076280010FA08DCDFED047A044B20EE270ABDEEE1
:10763800C00A83ED000A704700006145B8E20320E4
:1076480037B50E4B1B6819440D4B1B68044602A83E
:10765800194440F8041D02F055FD02F0FFFC0546F0
:1076680003F0F4FB2844002300F8013C2946204697
:10767800FFF731FE204603B030BD00BFB8E203205B
:10768800B0E203202DE9F047A4B014AC07468946C0
:10769800204611461D4602F0A1FE204603F0D6FB07
:1076A800804625B9244903A802F098FE13E03C213E
:1076B80095FBF1F2002AB8BF524292FBF1F301FBAD
:1076C800132200924FF461631C4A95FBF3F31021D7
:1076D80003A8FFF741F925462E1B08F1FF3AB245EA
:1076E8001BD92B78252B16D16B787A2B13D103A8AD
:1076F80003F0ACFB80463044C6EB0A02A91C2044C8
:1077080002F00BFE424603A9284602F006FE204678
:1077180003F09CFB80460135DEE74B4622463221CA
:1077280007A802F0DFFE07A93846FFF7D4FD384660
:1077380024B0BDE8F08700BFDDE30D00B1DC0D002B
:10774800F7B5054601921C4613B9124B1C682CB1BB
:10775800114B2046196802F037FE20B901992846D6
:10776800FFF76EFF13E00D4F019A3B680C4E1A4469
:10777800336802A8134440F8043D02F0C3FC3A6899
:1077880033680146134428462246FFF77BFF284604
:1077980003B0F0BDACE20320E0D60320B8E203203A
:1077A800B0E2032010B50020FEF718FE044668B9C1
:1077B800FEF7C4FF01280BD12046FEF7EFFF38B9CA
:1077C800FFF708FF30B9FFF75FF8F9E7012010BDB0
:1077D800002010BDFFF7FEFE0020FEF7FFFD003081
:1077E80018BF012010BD08B5FFF7DCFFBDE8084051
:1077F800FEF7ECBD08B5FFF7F6FFFFF7F9FEB0FAA4
:1078080080F0400908BD000008B5FFF7ECFFFFF75E
:10781800AFFE014B586908BD84E20320024B1A6889
:10782800024B1A60704700BFE0D60320ACE2032089
:107838000021FEF793BF10B58368044613B10322F5
:1078480001469847204610BD10B50446FFF7F3FFE0
:10785800204610BD13B50B46044603C88DE8030047
:1078680093E8030084E803009DE8030083E803002D
:1078780002B010BD0348044A04490023836001F0A4
:10788800DDBC00BFBCE20320D0D7032051780D0037
:1078980008B50C4B33B100F0D9FB03681B69984756
:1078A800002809DC084B63B100F052FC03681B692F
:1078B8009847002803DC08BDAFF30080F2E7AFF378
:1078C800008008BD000000000000000008B5FFF7B8
:1078D800DFFFFEF773FD014B186008BD08E60320C3
:1078E80007B5002300931A466FF07701FEF768FF8B
:1078F80003B05DF804FB000007B543880A2B08D0E5
:10790800502B09D1094B1B683BB103B05DF804EB60
:107918001847FFF7E5FF06E0002300931A466FF0CB
:107928007701FEF74DFF03B05DF804FBCCE20320BE
:1079380010B5FEF72BFD044602F010FD074B13B1FE
:107948002046AFF3008000210448FEF7CDFF002158
:107958000348BDE81040FEF729BF00BF0000000043
:1079680001790D0070470020704710B510210446BA
:1079780001F072FC204610BD08B508B1FFF7F5FF0D
:1079880008BD38B5C468ECB12378022B02D1E06891
:10799800FEF7BAFF656835B12846FFF74CFF10219E
:1079A800284601F059FCA56835B12846FFF743FF82
:1079B8001021284601F050FC20461421BDE838402B
:1079C80001F04ABC38BD13B5044691E80500002310
:1079D8004B600B602060626001A801930093FFF781
:1079E800A1FD204602B010BDF7B50C4602AD54F813
:1079F800043B45F8083D06460F4601A82146FFF717
:107A0800A7FD29463046FFF7DEFF01A8FFF78AFDEC
:107A18002046FFF787FD3846082101F01DFC304657
:107A280003B0F0BD826810B50AB901F0E1FCC36883
:107A3800BDE81040184708B5006800F11001FFF7CD
:107A4800F1FF08BD826810B50AB901F0D1FCC3681E
:107A5800BDE81040184708B5006800F11001FFF7AD
:107A6800F1FF08BD38B5002383608B6804460D46D6
:107A78002BB102229847EB68E360AB68A36020460D
:107A880038BD00002DE9F0414FF69C7386B00468BC
:107A9800B1F904208B8000230F688DF800300B604B
:107AA8004FF00200D4E84F1F994203D1C4E8450FB4
:107AB800002DF7D102D08DF800106BE014F10C0501
:107AC8001EBFE76022821F460123BFF35F8F00209D
:107AD800637004F10803BFF35F8F53E8006F43E856
:107AE8000002002AF9D1BFF35F8F002E52D0FEF7B3
:107AF80045FE20B129463046FFF794FF43E0314662
:107B08006846FFF7AFFFE068B4F9105008B102F01B
:107B18006DFC04901020ADF81450FCF7B8FA054637
:107B280030B34FF00008C0F808801820FCF7AFFA0F
:107B38000446C0B1C0F8088001466846FFF78AFECF
:107B4800029BA268A360039B0292E268E360BDF80F
:107B58001430A3824FF69C73ADF81430049B039243
:107B68002361CDF810800E4BEB600E4B2C60AB60A0
:107B78000498FEF7C9FE6846FFF75DFE0022294615
:107B88000948FEF703FE3046FFF755FE1021304640
:107B980001F062FB3846FEF7B7FE06B0BDE8F0819B
:107BA8003F7A0D009D7C0D00A5810D002DE9F04F59
:107BB8008BB007AD4FF0000B0646994614200C23F6
:107BC8000F4690469DF850A0C5F804B0C5F808B017
:107BD8000793FCF75CFA044638B180F800B080F8E7
:107BE80001B0C0F804B0C0F808B000231020039416
:107BF8000493FCF74CFA28B1012343608360234BBC
:107C08000360C4600490224B08930820FCF73FFAF5
:107C1800044628B1039B40F8043B04A9FFF798FCED
:107C280000955FFA8AF34A46414638460994FEF7BA
:107C380043FEB8B9039B5B7803F0FF0293B94FF694
:107C48009C7305A903A80592ADF81830FFF71AFF31
:107C58000598FEF759FE05A80999FFF7C5FE06A87D
:107C6800FFF760FC039B059304A906A8FFF770FCC7
:107C780005A93046FFF7A7FE06A8FFF753FC04A89E
:107C8800FFF750FC30460BB0BDE8F08FE0DC0D008C
:107C9800097E0D00022AF8B5044606D0032A17D03B
:107CA800012A21D10B6803601EE018200E68FCF73A
:107CB800EEF9054650B13146FFF7D4FE3069B6F902
:107CC800147008B102F092FB2861AF8225600BE0C6
:107CD80004684CB12069FEF717FE2046FFF7ABFD9C
:107CE8001821204601F0B8FA0020F8BD38B5002365
:107CF80083608B6804460D462BB102229847EB68D7
:107D0800E360AB68A360204638BD022A70B504461C
:107D180006D0032A11D0012A18D10B68036015E098
:107D280014200E68FCF7B3F9054620B13146FFF779
:107D3800DDFF337C2B74256008E0046834B12046ED
:107D4800FFF779FD1421204601F086FA002070BD66
:107D5800F0B5002387B00C46BFF35F8F50E8006F83
:107D680040E80032002AF9D1BFF35F8F002E3FD0E0
:107D78001846FEF703FD074620B121463046FFF7B7
:107D880061FE2EE0314601A8FFF7B0FF23788DF899
:107D980014301020FCF77BF90546D0B18760142019
:107DA800FCF775F9044678B18760014601A8FFF72A
:107DB80051FD039BA268A360049B0392E268E36001
:107DC8009DF81430049223740A4BEB600A4B2C6024
:107DD800AB6001A8FFF72FFD002229460748FEF7F0
:107DE800D5FC3046FFF727FD1021304601F034FA64
:107DF80007B0F0BD5F7A0D00137D0D00A5810D0061
:107E080030B585B004460D4668461146FFF7ECFDCF
:107E18007CB124B228460DB102F0E8FA029002A91A
:107E28006846ADF80C40FFF72DFE0298FEF76CFD92
:107E38001DE000988DF808404FF00102D0E84F3F50
:107E4800A34203D1C0E8412F0029F7D102D08DF811
:107E580008300CE010F10C014FF0010318BF037358
:107E6800BFF35F8F043000F8033CFFF771FF01A8F0
:107E7800FFF758FB05B030BD704710B51821044610
:107E880001F0EAF9204610BDF0B5037D062B8DB050
:107E98000E4600F104074FF0000402D000F1080577
:107EA80018E00CAD394605F8304D2F232A460A2034
:107EB800FEF7F4FA284602F0C9FF33680246DB6889
:107EC8002946304698470FE024B12E213046FFF767
:107ED800A4FA044415F8011D0A223046FFF7E3FA14
:107EE800BD420444F0D120460DB0F0BD10B5054B9D
:107EF8000446112240F8043B002102F019FA2046FA
:107F080010BD00BFFCDC0D000346074A10B543F85E
:107F1800042B01F1100251F8044B43F8044B914231
:107F2800F9D10A781A7010BDFCDC0D00037D042B12
:107F380001D1406808E0062B0AD1436853B1836831
:107F480043B1C36833B10069003018BF01207047DE
:107F5800002070471846704710B59DF8084044EA5D
:107F6800032343EA024242EA0161042341600375A4
:107F780010BD37B50D788B784A78C97800912946B5
:107F8800FFF7EAFF03B030BD41747047704708B58A
:107F98000021007CFEF7A2FB30EA200028BF4FF04A
:107FA800FF3008BD08B50121007CFEF797FB30EAD9
:107FB800200028BF4FF0FF3008BD08B5007CFEF751
:107FC80085FB20EAE07008BD08B5007CFEF776FB6B
:107FD80020EAE07008BD007CFEF790BB10B51421C4
:107FE800044601F039F9204610BD38B50446007C36
:107FF8000D46FEF76BFB002801DC607C28B12946A2
:10800800207CFEF773FB20EAE07038BD10B504460B
:10801800002363604FF47A73A360054B2360012348
:108028000846217463741146FEF738FB204610BDDC
:1080380010DD0D000022007CFEF738BB10B51422BD
:108048000446002102F074F9204610BD30B50E4DEB
:1080580087B001A8FFF7F2FF296811F0010410D1D9
:108068002846FCF727F860B101AA21460748FFF720
:10807800CDFF2846FCF723F8054A0649034801F0D6
:10808800DDF8024807B030BDD0E20320D4E2032077
:10809800D0D70320957F0D0070474174704708B50D
:1080A800007CFEF75BFA20EAE07008BD08B5007CAA
:1080B800FEF72CFA20EAE07008BD08B5007CFEF750
:1080C80035FA30EA200028BF4FF0FF3008BD08B568
:1080D800007CFEF723FA30EA200028BF4FF0FF307B
:1080E80008BD007CFEF72ABA10B51421044601F039
:1080F800B3F8204610BD70B5457C04460E4625B938
:10810800007CFEF72BFA002805DD3146207CBDE80F
:108118007040FEF7F3B9284670BD000010B504465C
:1081280008461146002262604FF47A72A260054A3E
:1081380022600122207462741A46FEF7D7F920469D
:1081480010BD00BF40DD0D00007CFEF7FFB9000048
:1081580038B50C4D296811F0010411D12846FBF7F8
:10816800A9FF68B1084A094B09482146FFF7D6FF1D
:108178002846FBF7A4FF074A0749054801F05EF8BF
:10818800034838BD80E3032084E30320FCE2032096
:10819800E8E20320D0D70320A1800D0010B5836842
:1081A80004460BB901F024F9C3689847A3681BB1CA
:1081B800032221462046984720461021BDE810405A
:1081C80001F04AB87047F8B5064615460C468F18B0
:1081D800BC4206D0336814F8011B9B6830469847A8
:1081E800F6E72846F8BD0022007CFEF7D7B9002143
:1081F800007CFEF7DBB90021007CFEF7DFB9002127
:10820800007CFEF7E3B90021007CFEF7E7B910B562
:108218001421044601F020F8204610BD10B504468C
:108228004FF47A730846A3600021044B2074616000
:108238002360FEF7E3F9204610BD00BF70DD0D0096
:1082480000231A461946007CFEF790B90022007CEC
:10825800FEF794B9C9B2FFF7F9BF0022007CFEF718
:1082680095B90121FFF7F9BF0021007CFEF7BEB9DF
:1082780010B501230374836804460BB1C06806E097
:10828800006828B183680BB901F0B2F8C368984751
:10829800012363740020BDE81040FEF7F7B8002200
:1082A80011464068FEF7D8BA002211464068FEF72A
:1082B800E3BA00224068FEF7D7BA002281F0010134
:1082C8004068FEF7C1BA00231A4619464068FEF70F
:1082D800B3BA00231A4619464068FEF7A5BA002229
:1082E80011464068FEF798BA002211464068FEF72A
:1082F80083BA002202214068FEF786BA00231A4694
:108308004068FEF771BA38B5054688B104684CB1C3
:10831800A3681BB103222146204698471021204616
:1083280000F09AFF28461421BDE8384000F094BFB9
:1083380038BD10B103685B681847704710B503680B
:108348000446BBB15868FEF761F878B923685A7CCF
:1083580012B95868FEF76AF823685868FEF76EF88D
:1083680020680023236028B1FFF7CDFF206808B1FB
:10837800FFF7C9FF204610BD38B50C4B0360044613
:10838800D0F8CC0108B1FBF788FED4F8C45135B158
:108398002846FFF7D3FF0421284600F05DFFA068B8
:1083A80008B1FFF7C6FF204638BD00BF98DD0D00B5
:1083B8002DE9F84F0B9F9DF828B006468846914650
:1083C8009A4604460025236C4B4529D1636C5345D6
:1083D80026D194F848305B4522D14021404602F02E
:1083E80052FD41460246204602F038FDC0B96FB141
:1083F8000C21384602F047FD024638B1582303FBEA
:1084080005603946493002F029FD04E0582000FB98
:10841800056595F84900B0FA80F04009BDE8F88F85
:108428000135052D04F15804CDD10020BDE8F88FA1
:108438002DE9F04F85B007469DF838A00F9E0196AC
:10844800CDF800A0894602920393FFF7B1FF0028F8
:108458003CD10446582303FB0475D5F84080B8F195
:10846800000F2ED14021484602F00DFD49468346B3
:108478000246284601F051FFCBF14002414605EB88
:108488000B0001F055FF029B2B64039B6B6485F87E
:1084980049802EB10C21304602F0F5FC054600E07B
:1084A80035465820444338193C442A463146493019
:1084B800254401F032FF002085F8490084F848A0DF
:1084C80005E00134052CC6D1024800E0002005B0C3
:1084D800BDE8F08FFCFEFFFF07B500230193009372
:1084E800FFF7A6FF03B05DF804FB2DE9F34104464E
:1084F80008460D46904602F0A9FC04F5DC760746CE
:10850800236CABB14021204602F0BDFC87420246F5
:108518000BD32946204601F0F1FE30B900904346BE
:108528002A4621465820FEF755F95834B442E7D177
:1085380002B0BDE8F081000030B58DB004461122CC
:10854800002101A801F0F4FE062301AA09498DF8CB
:1085580014300A20FDF7AAFF07AD01A906A8FFF706
:10856800D3FC0FCD04340FC42B68237000200DB04A
:1085780030BD00BFC4DD0D0030B5044689B000F53C
:10858800E070FEF7CCFF236883BB4C20FBF77FFD30
:10859800054608B1FEF7A0FD2068256008B1FFF781
:1085A800C8FE206820B300224FF49A61FEF7C4FD8C
:1085B80008A9002501F8195D1148FDF7BFFE2068DC
:1085C8009DF80720036849F269011B6A984702A8C9
:1085D800FFF78CFC02A8FFF7AFFF002804DB02A915
:1085E8002068FEF715FE04E0054602E0002500E0DD
:1085F800044DD4F8C001FDF741FF284609B030BD4D
:10860800D1DD0D00FCFEFFFF2DE9F04705468CB0DB
:1086180016460F4609B10B780BB9354C64E008468D
:1086280002F014FC8046002E5CD0304602F00EFCAE
:10863800441C08F102032344B3F59A6F4FD805F59B
:10864800E070FEF76CFF2846FFF796FF002840DB36
:108658006846FFF74BFC6846FFF76EFF002838DBDB
:10866800D5F800A0DAF800300DF1040CD3F83890F2
:10867800204B0693BCE80F000DF11C0EAEE80F006E
:10868800DCF800308EF8003049F2690206A950463D
:10869800C84700281DDB002328688DF818300368B8
:1086A8000122DB6806A998472868036808F10102D7
:1086B800DB68394698472CB1286803682246DB688E
:1086C80031469847286803681B6C984700EAE074AD
:1086D80000E00446D5F8C001FDF7D0FE04E06FF0D5
:1086E800BD0401E03446A4E720460CB0BDE8F0879D
:1086F800F2FEFFFFFCDC0D002DE9F341044600F516
:10870800E0700F469046FEF70AFFD4F8BC61002ED1
:108718003AD12849042000F0A3FD054640B3254975
:10872800142000F09DFD28B106740660466086603E
:10873800C66046742860A8B11F4B83602B681F4928
:10874800DC6028684FF440638DE8090003221C4B65
:108758000430FDF753FE28B92B681B7C43B9FDF79D
:108768005DFEF9E7286800232B6008B1FFF7CBFD11
:10877800D4F8BC61C4F8BC5136B13046FFF7DEFD11
:108788000421304600F068FD2046FFF7F5FE00287A
:1087980007DB42463946201DFFF79EFE00EAE075DA
:1087A80000E00546D4F8C001FDF768FE284602B08F
:1087B800BDE8F081D4DE0D00DD880D00D5DD0D00AB
:1087C80079820D002DE9F041054600F5E0768AB082
:1087D8003046FEF7A4FE2C68D5F8C001FDF74EFE22
:1087E800002C63D0D5F8C43163B12368D5F8C4111F
:1087F8001F6B20464FF47A734FF49A62B847041EF1
:1088080013DC56E02D494FF49A6000F027FDD5F8A7
:10881800C431C5F8C40113B11846FBF73EFCD5F8BE
:10882800C431002BE1D1264844E02023254A029395
:1088380000920023019402AA234903930120FDF723
:1088480075FFD5F8C4315F1C1B786BBB013C214612
:10885800384602F018FB38B3241A002C07EB00083E
:1088680022DD3B5C03BB013C0ED008F10108214628
:10887800404602F008FB241A002C15DD18F80030D9
:1088880093B9012C02D00FE0DFF844803046FEF7A0
:1088980046FE42463946281DFFF727FED5F8C00197
:1088A800FDF7ECFD002005E0084803E06420FDF733
:1088B80075FD20460AB0BDE8F08100BFD4DE0D008A
:1088C800FCFEFFFFE4DD0D00DDDD0D00E8FEFFFF2F
:1088D80019DB0D0008B504462046FFF773FFFBE7D8
:1088E80038B50D4C0D4B23600025022304F5E470C8
:1088F8006360A560C4F8C451C4F8C851FDF7AEFD63
:10890800074BC4F8CC5123602046064A0649BDE807
:10891800384000F093BC00BF08E40320A8DE0D0037
:1089280098DD0D00D0D7032081830D0037B502AC48
:10893800036804F8011DDD6B01224FF0FF33214667
:10894800A84703B030BD10B40368DC6B4FF0FF33A9
:10895800A4465DF8044B604737B502AC036804F8D9
:10896800011DDD6B214613460122A84703B030BD27
:10897800704738B543691A68002A044605DAB3F81F
:108988008620B3F884309A4201D001250BE00368B1
:108998001B699847002814BF0125002503D12368C7
:1089A8002046DB6A9847284638BD43691868C043A3
:1089B800C00F704770470020704710B51421044657
:1089C80000F04AFC204610BDFBF765BB2DE9F043DB
:1089D8009846036893B0DB6A0C46064617469847E4
:1089E80012AB002543F8485D2A4629462046FDF784
:1089F80025FC00283ADB009B002B39D05B69002B53
:108A080036D006A8FFF772FA009B5C696378022BE0
:108A180001D1211D13E00A2B14D11122294601A8E6
:108A280001F086FCA36833BBE36823BB4FF6FF70F5
:108A38002569FDF743FD85421DD104F1140106A8FF
:108A4800FFF797FA06A8FFF771FA88B1336807AD00
:108A5800D3F82090184B0C930FCD0DAC0FC42B6896
:108A680023703A4643460CA93046C84704461CE0E2
:108A78004FF0FF3419E004F1080301AD1834186809
:108A880059682A4603C20833A3421546F7D106237C
:108A980001A90CA80DAD8DF81430FFF735FA0FCDEC
:108AA80007AC0FC42B682370CCE70098FDF7BEFB1A
:108AB800204613B0BDE8F083FCDC0D007FB51646F8
:108AC80000224260029203925A1C04460D4608D0C6
:108AD8004FF47A72B3FBF2F1029102FB11314A436F
:108AE800039260690823009341F205026B4440F643
:108AF800FF710068FDF792FD002808DB606900231C
:108B0800324629460068FDF7B1FD002804DAFDF772
:108B18004BFF03686360002004B070BD10B50368A4
:108B280004469B689847A368013BA3602BB9236858
:108B38002046DB68BDE81040184710BD70B50446F4
:108B48004D69054B44F8043B8C3506460FCD0FC4E0
:108B58002B682370304670BDFCDC0D0010B54369EE
:108B6800B3F88620B3F884309A42044605D0626987
:108B7800B2F884301344187910BD03681B6998470C
:108B88000028F4D14FF0FF3010BD10B54369B3F899
:108B98008620B3F884309A42044608D06269B2F855
:108BA8008430591C1344A2F88410187910BD036846
:108BB8001B6998470028F1D14FF0FF3010BDF8B578
:108BC80043691746B3F88620B3F884309A420546BD
:108BD8000E4606D103681B69984710B94FF0FF3459
:108BE80014E06969B1F88430B1F88640E41ABC42EF
:108BF80028BF3C46194422460431304601F08DFB1B
:108C08006A69B2F884302344A2F884302046F8BD5B
:108C180042690023A2F884304269A2F8863070477E
:108C28002DE9F041984603680D468AB0DB6A06468E
:108C3800174698472B7D7469042B0CBF02200A2025
:108C480006220121FDF722FD206073691C68002CB3
:108C58005BDB3046FFF7DCFFB8F1000F17D00023CD
:108C680003A95FFA88F00393ADF81030FDF76EFBA7
:108C7800002849DB70690623009341F20B0203AB1D
:108C880040F6FF710068FDF7C9FC00283CDB1C2496
:108C98002246002103A801F04BFB2B7D8DF80C40E8
:108CA800042B0CD1022338468DF80D30FDF716FC45
:108CB800ADF80E006868FDF701FC049013E00A2384
:108CC80038468DF80D30FDF709FC05ACADF80E00FF
:108CD8002B1D05F1140718685968224603C208338A
:108CE800BB421446F7D173691C2203A91868FDF723
:108CF800A5FC002808DB2C1D0FCC76698C360FC626
:108D080023683370012404E0044633683046DB6A84
:108D1800984720460AB0BDE8F08110B5436904467B
:108D28001868002801DBFDF781FC63694FF0FF320A
:108D38001A606069112200218C3001F0F9FA20468E
:108D4800BDE81040FFF764BF30B54269B2F886301D
:108D58008BB004461BB1B2F884209A4240D06369B4
:108D6800186800283FDBB3F886507F2D3BD8191DC3
:108D7800C5F1800208232944FDF768FC00280CDDB2
:108D88006369B3F886200AB9A3F884206269B2F847
:108D980086301844A2F8860025E0FDF705FE036832
:108DA8000B2B20D0FDF700FE03680B2B1BD02023D4
:108DB800002502930395FDF7F7FD036801930E4B19
:108DC800009302AA2B460D493220FDF7AFFC6369D8
:108DD8001868FDF72BFC63694FF0FF321A6002E058
:108DE800FFF716FFBBE76269B2F88630B2F8840075
:108DF800181A0BB030BD00BF5CDE0D00DDDD0D00C4
:108E080010B5002304460160A0F88430A0F886302D
:108E18008830FFF76BF8204610BD00004FF47A72D7
:108E280070B500238260144A436002604361836125
:108E38000446A0200E46FBF72AF9054610B1314634
:108E4800FFF7DEFF1420FBF722F9034628B10122C1
:108E580042608260094A02600561A0696561A36198
:108E680028B14368013B43600BB9FFF757FE204622
:108E7800FFF7CEFE204670BD18DE0D00FCDD0D00AC
:108E880010B54FF0FF310446FFF7C8FF204610BD6C
:108E980010B504460068002801DBFDF7C7FB204633
:108EA80010BD10B504692046FFF7F2FF24B1204633
:108EB800BDE81040FBF7EFB810BD0022114640682E
:108EC800FDF7AABC002211464068FDF7C5BC002288
:108ED80011464068FDF7D0BC00224068FDF7C4BCCD
:108EE800002281F001014068FDF7AEBC00231A465C
:108EF80019464068FDF7A0BC00231A461946406889
:108F0800FDF792BC002211464068FDF775BC0022AF
:108F180002214068FDF778BC00231A464068FDF737
:108F280063BC0000024B04225A60024A1A60704770
:108F3800D8E5032074DE0D0000231A464068FDF7CB
:108F480053BC002202214068FDF75EBC0022114696
:108F58004068FDF751BC002211464068FDF75CBC33
:108F680000231A4619464068FDF75EBC00231A46DE
:108F780019464068FDF760BC002281F00101406895
:108F8800FDF762BC00224068FDF76EBC0022114666
:108F98004068FDF771BC002211464068FDF75CBCD3
:108FA8002DE9F043002495B016460D460746FEF716
:108FB8009DFF214620220CA8009401F0B9F9402316
:108FC8000C9321466B460CAA3046FDF737F9044648
:108FD800002844D1024601216868FDF71DFC0221E2
:108FE800804622466868FDF717FC009E81462146A8
:108FF800002E34D0002932D17368022B02D00A2BFC
:1090080009D02AE0B8F1000F27D071693846043139
:10901800FEF7AFFF20E0B9F1000F1ED074691122EE
:1090280001A801F085F906238DF8143001AD04F18B
:1090380008031834186859682A4603C20833A3423B
:109048001546F7D101A906A807ADFEF75DFF0FCDBC
:109058003C1D0FC42B6823700121F669C8E70098EE
:10906800FDF7E4F8384615B0BDE8F083024B034A33
:109078001A6000225A607047E0E50320A8DE0D0060
:1090880010B504460F48FDF75DFD28B1A4F10B03A8
:10909800022B01D8002010BD00F0B0F8FFF7E4F86B
:1090A80008B1012CF6D9FFF753F8FFF74DF818B1BE
:1090B800A4F10903012BEDD9232C8CBF002001203A
:1090C80010BD00BFE8E50320232838B504460D4647
:1090D8000AD8FF2908D0FFF7D3FF28B12946204630
:1090E800BDE83840FDF7C2B838BD38B504460D466E
:1090F800FDF7C4F8FF2810D0062804D84D2323FA1A
:1091080000F0C30709D42046FFF7BAFF28B1294663
:109118002046BDE83840FDF7B9B838BD10B504465B
:10912800FDF7ACF80438C0B2012808D92046FFF78B
:10913800A7FF20B12046BDE81040FDF7AFB80020DA
:1091480010BD0D2810B504469CBF0E34A4B22046AD
:10915800FFF796FF50B103212046FDF77FF803285B
:1091680004D12046BDE81040FDF7A0B8002010BD8E
:109178002DE9F04190461E46072407460D46B8F1F2
:10918800000F04D1C4F1070146FA01F101E046FAE3
:1091980004F101F001013846FFF7A7FF0121284635
:1091A800FFF7A3FF00212846FFF79FFF14F1FF34C4
:1091B800E5D2BDE8F081000070B50C4C0C4E0D4DA9
:1091C80000212046FDF73EFC20460B4C324629463E
:1091D80000F034F801212046FDF734FC32462946D8
:1091E8002046BDE8704000F029B800BFE8E503203C
:1091F800D0D703203D6A0D00F8E5032038B50B4DA4
:10920800296811F001040FD12846FAF753FF58B125
:1092180021460748FFF702F82846FAF750FF054AA3
:109228000549034800F00AF8014838BD0CE6032058
:1092380010E60320D0D70320CD810D000B46014650
:10924800184600F047BF0000024B1868BFF35F8F55
:10925800704700BF24E60320FAF71DBF00F000B8EE
:1092680010B5002814BF044601242046FDF744FB2E
:1092780020B9FFF7E9FF08B18047F6E710BDC368DA
:109288009A68C26002B1506042685A600A689042A7
:1092980001D10B6005E04268916888420CBF936079
:1092A800D3609860436070478368DA68826002B16F
:1092B800506042685A600A68904201D10B6005E02C
:1092C8004268D16888420CBFD3609360D86043601D
:1092D800704703782BB943685B68984201D1C3682B
:1092E8000CE083681BB1DA6842B11346FBE74368B8
:1092F8009A68824202D118465B68F9E718467047B7
:10930800C36823B118469B68002BFBD10AE0436869
:10931800DA68824202D118465B68F9E7C26893426C
:1093280018BF18467047FFF7D4BF2DE9F0471F460E
:1093380003F1040900230C464A608B60CB600B7074
:1093480068B19742916001D179600CE0BB689A429C
:1093580008BFB9604FF001084FF0000A17E0D1606C
:10936800FB689A42F6D1FC60F4E766683278002A16
:109378003AD17568AB689E421FD1EB685BB11A7829
:109388004AB986F8008083F800802A702C467B68EA
:109398009C42EAD128E0F3689C4204D14946304611
:1093A800FFF76DFF34466368494683F80080284616
:1093B80085F800A0FFF778FF14E013B11A78002AA7
:1093C800DFD0B3689C4204D149463046FFF76CFFB2
:1093D80034466368494683F80080284685F800A02B
:1093E800FFF74DFF2546D1E701221A70BDE8F08747
:1093F80008B5FDF7C9FA0000184B1A68D1075CBF19
:1094080001221A60164B1A68D2075CBF01221A6043
:10941800144B1A68D0075CBF01221A60124B1A68F5
:10942800D1075CBF01221A60104B1A68D2075CBFD3
:1094380001221A600E4B1A68D0075CBF01221A601D
:109448000C4B1A68D1075CBF01221A600A4B1A68D4
:10945800D2075CBF01221A60704700BF44E60320B0
:1094680040E603203CE6032038E6032034E60320E8
:1094780030E603202CE6032028E60320244B1A6854
:10948800D0075CBF01221A60224B1A68D1075CBF63
:1094980001221A60204B1A68D2075CBF01221A60A9
:1094A8001E4B1A68D0075CBF01221A601C4B1A6851
:1094B800D1075CBF01221A601A4B1A68D2075CBF39
:1094C80001221A60184B1A68D0075CBF01221A6083
:1094D800164B1A68D1075CBF01221A60144B1A6830
:1094E800D2075CBF01221A60124B1A68D0075CBF12
:1094F80001221A60104B1A68D1075CBF01221A605A
:109508000E4B1A68D2075CBF01221A60704700BF71
:1095180074E6032070E603206CE6032068E6032067
:1095280064E6032060E603205CE6032058E6032097
:1095380054E6032050E603204CE6032048E60320C7
:10954800244B1A68D0075CBF01221A60224B1A68A4
:10955800D1075CBF01221A60204B1A68D2075CBF92
:1095680001221A601E4B1A68D0075CBF01221A60DC
:109578001C4B1A68D1075CBF01221A601A4B1A6883
:10958800D2075CBF01221A60184B1A68D0075CBF6B
:1095980001221A60164B1A68D1075CBF01221A60B3
:1095A800144B1A68D2075CBF01221A60124B1A6862
:1095B800D0075CBF01221A60104B1A68D1075CBF44
:1095C80001221A600E4B1A68D2075CBF01221A608A
:1095D800704700BFA4E60320A0E603209CE6032012
:1095E80098E6032094E6032090E603208CE6032007
:1095F80088E6032084E6032080E603207CE6032037
:1096080078E60320184B1A68D1075CBF01221A605C
:10961800164B1A68D2075CBF01221A60144B1A68ED
:10962800D0075CBF01221A60124B1A68D1075CBFD1
:1096380001221A60104B1A68D2075CBF01221A6017
:109648000E4B1A68D0075CBF01221A600C4B1A68CF
:10965800D1075CBF01221A600A4B1A68D2075CBFA7
:1096680001221A60704700BFC4E60320C0E6032049
:10967800BCE60320B8E60320B4E60320B0E60320E6
:10968800ACE60320A8E6032081F0004102E000BF19
:1096980083F0004330B54FEA41044FEA430594EAAA
:1096A800050F08BF90EA020F1FBF54EA000C55EAE5
:1096B800020C7FEA645C7FEA655C00F0E2804FEAB6
:1096C8005454D4EB5555B8BF6D420CDD2C4480EA98
:1096D800020281EA030382EA000083EA010180EAC8
:1096E800020281EA0303362D88BF30BD11F0004F16
:1096F8004FEA01314FF4801C4CEA113102D040424C
:1097080061EB410113F0004F4FEA03334CEA133386
:1097180002D0524263EB430394EA050F00F0A7809E
:10972800A4F10104D5F1200E0DDB02FA0EFC22FA99
:1097380005F2801841F1000103FA0EF2801843FA8D
:1097480005F359410EE0A5F120050EF1200E012A7E
:1097580003FA0EFC28BF4CF0020C43FA05F3C018BC
:1097680051EBE37101F0004507D54FF0000EDCF135
:10977800000C7EEB00006EEB0101B1F5801F1BD3DE
:10978800B1F5001F0CD349085FEA30004FEA3C0CE2
:1097980004F101044FEA445212F5800F80F09A80D8
:1097A800BCF1004F08BF5FEA500C50F1000041EBDC
:1097B800045141EA050130BD5FEA4C0C404141EBE0
:1097C800010111F4801FA4F10104E9D191F0000F07
:1097D80004BF01460020B1FA81F308BF2033A3F18A
:1097E8000B03B3F120020CDA0C3208DD02F1140C81
:1097F800C2F10C0201FA0CF021FA02F10CE002F1BC
:109808001402D8BFC2F1200C01FA02F120FA0CFCB4
:10981800DCBF41EA0C019040E41AA2BF01EB0451FD
:10982800294330BD6FEA04041F3C1CDA0C340EDCFB
:1098380004F11404C4F1200220FA04F001FA02F33E
:1098480040EA030021FA04F345EA030130BDC4F1FC
:109858000C04C4F1200220FA02F001FA04F340EAF1
:109868000300294630BD21FA04F0294630BD94F0A2
:10987800000F83F4801306BF81F480110134013D89
:109888004EE77FEA645C18BF7FEA655C29D094EAFA
:10989800050F08BF90EA020F05D054EA000C04BF78
:1098A8001946104630BD91EA030F1EBF0021002063
:1098B80030BD5FEA545C05D14000494128BF41F002
:1098C800004130BD14F580043CBF01F5801130BD66
:1098D80001F0004545F0FE4141F470014FF00000F1
:1098E80030BD7FEA645C1ABF194610467FEA655CA2
:1098F8001CBF0B46024650EA013406BF52EA033544
:1099080091EA030F41F4002130BD00BF90F0000F31
:1099180004BF0021704730B54FF4806404F132046D
:109928004FF000054FF0000150E700BF90F0000F26
:1099380004BF0021704730B54FF4806404F132044D
:1099480010F0004548BF40424FF000013EE700BF1D
:1099580042004FEAE2014FEA31014FEA02701FBFAD
:1099680012F07F4393F07F4F81F06051704792F07F
:10997800000F14BF93F07F4F704730B54FF46074F9
:1099880001F0004521F0004120E700BF50EA010244
:1099980008BF704730B54FF000050AE050EA0102F1
:1099A80008BF704730B511F0004502D5404261EB61
:1099B80041014FF4806404F132045FEA915C3FF4A2
:1099C800DCAE4FF003025FEADC0C18BF03325FEA3B
:1099D800DC0C18BF033202EBDC02C2F1200300FAF0
:1099E80003FC20FA02F001FA03FE40EA0E0021FA15
:1099F80002F11444C1E600BF70B54FF0FF0C4CF4FF
:109A0800E06C1CEA11541DBF1CEA135594EA0C0FB4
:109A180095EA0C0F00F0DEF82C4481EA030621EAEF
:109A28004C5123EA4C5350EA013518BF52EA03352A
:109A380041F4801143F4801338D0A0FB02CE4FF0DC
:109A48000005E1FB02E506F00042E0FB03E54FF00C
:109A58000006E1FB03569CF0000F18BF4EF0010E04
:109A6800A4F1FF04B6F5007F64F5407404D25FEA00
:109A78004E0E6D4146EB060642EAC62141EA5551B3
:109A88004FEAC52040EA5E504FEACE2EB4F1FD0CF5
:109A980088BFBCF5E06F1ED8BEF1004F08BF5FEA73
:109AA800500E50F1000041EB045170BD06F0004625
:109AB80046EA010140EA020081EA0301B4EB5C04D2
:109AC800C2BFD4EB0C0541EA045170BD41F48011CA
